{
  "_format": "hh-sol-artifact-1",
  "contractName": "DroneConsensus",
  "sourceName": "contracts/DroneConsensus.sol",
  "abi": [
    {
      "anonymous": false,
      "inputs": [
        {
          "indexed": true,
          "internalType": "uint256",
          "name": "blockView",
          "type": "uint256"
        },
        {
          "indexed": false,
          "internalType": "string",
          "name": "operation",
          "type": "string"
        },
        {
          "indexed": false,
          "internalType": "uint256",
          "name": "x",
          "type": "uint256"
        },
        {
          "indexed": false,
          "internalType": "uint256",
          "name": "y",
          "type": "uint256"
        },
        {
          "indexed": false,
          "internalType": "address",
          "name": "signer",
          "type": "address"
        }
      ],
      "name": "BlockCommitted",
      "type": "event"
    },
    {
      "inputs": [
        {
          "internalType": "uint256",
          "name": "blockView",
          "type": "uint256"
        },
        {
          "internalType": "string",
          "name": "operation",
          "type": "string"
        },
        {
          "internalType": "uint256",
          "name": "x",
          "type": "uint256"
        },
        {
          "internalType": "uint256",
          "name": "y",
          "type": "uint256"
        },
        {
          "internalType": "bytes",
          "name": "signature",
          "type": "bytes"
        }
      ],
      "name": "commitBlockWithSig",
      "outputs": [],
      "stateMutability": "nonpayable",
      "type": "function"
    },
    {
      "inputs": [
        {
          "internalType": "uint256",
          "name": "",
          "type": "uint256"
        }
      ],
      "name": "committedViews",
      "outputs": [
        {
          "internalType": "bool",
          "name": "",
          "type": "bool"
        }
      ],
      "stateMutability": "view",
      "type": "function"
    }
  ],
  "bytecode": "0x6080604052348015600f57600080fd5b50610c488061001f6000396000f3fe608060405234801561001057600080fd5b50600436106100365760003560e01c8063273cad2d1461003b57806352d01f311461006b575b600080fd5b610055600480360381019061005091906105b4565b610087565b60405161006291906105fc565b60405180910390f35b610085600480360381019061008091906106d2565b6100a7565b005b60006020528060005260406000206000915054906101000a900460ff1681565b60008088815260200190815260200160002060009054906101000a900460ff1615610107576040517f08c379a00000000000000000000000000000000000000000000000000000000081526004016100fe906107eb565b60405180910390fd5b6000878787878760405160200161012295949392919061086b565b60405160208183030381529060405280519060200120905060006101458261027e565b905060006101978286868080601f016020809104026020016040519081016040528093929190818152602001838380828437600081840152601f19601f820116905080830192505050505050506102b4565b90503373ffffffffffffffffffffffffffffffffffffffff168173ffffffffffffffffffffffffffffffffffffffff1614610207576040517f08c379a00000000000000000000000000000000000000000000000000000000081526004016101fe90610903565b60405180910390fd5b60016000808c815260200190815260200160002060006101000a81548160ff021916908315150217905550897f9e46ae59badda62db7405d0551bf67fadd1b8523268b7768ef0a32f796d5764d8a8a8a8a8660405161026a9594939291906109b1565b60405180910390a250505050505050505050565b60007f19457468657265756d205369676e6564204d6573736167653a0a33320000000060005281601c52603c6000209050919050565b60008060006102c385856102db565b915091506102d08161032c565b819250505092915050565b600080604183510361031c5760008060006020860151925060408601519150606086015160001a905061031087828585610492565b94509450505050610325565b60006002915091505b9250929050565b600060048111156103405761033f6109ff565b5b816004811115610353576103526109ff565b5b031561048f576001600481111561036d5761036c6109ff565b5b8160048111156103805761037f6109ff565b5b036103c0576040517f08c379a00000000000000000000000000000000000000000000000000000000081526004016103b790610a7a565b60405180910390fd5b600260048111156103d4576103d36109ff565b5b8160048111156103e7576103e66109ff565b5b03610427576040517f08c379a000000000000000000000000000000000000000000000000000000000815260040161041e90610ae6565b60405180910390fd5b6003600481111561043b5761043a6109ff565b5b81600481111561044e5761044d6109ff565b5b0361048e576040517f08c379a000000000000000000000000000000000000000000000000000000000815260040161048590610b78565b60405180910390fd5b5b50565b6000807f7fffffffffffffffffffffffffffffff5d576e7357a4501ddfe92f46681b20a08360001c11156104cd57600060039150915061056b565b6000600187878787604051600081526020016040526040516104f29493929190610bcd565b6020604051602081039080840390855afa158015610514573d6000803e3d6000fd5b505050602060405103519050600073ffffffffffffffffffffffffffffffffffffffff168173ffffffffffffffffffffffffffffffffffffffff16036105625760006001925092505061056b565b80600092509250505b94509492505050565b600080fd5b600080fd5b6000819050919050565b6105918161057e565b811461059c57600080fd5b50565b6000813590506105ae81610588565b92915050565b6000602082840312156105ca576105c9610574565b5b60006105d88482850161059f565b91505092915050565b60008115159050919050565b6105f6816105e1565b82525050565b600060208201905061061160008301846105ed565b92915050565b600080fd5b600080fd5b600080fd5b60008083601f84011261063c5761063b610617565b5b8235905067ffffffffffffffff8111156106595761065861061c565b5b60208301915083600182028301111561067557610674610621565b5b9250929050565b60008083601f84011261069257610691610617565b5b8235905067ffffffffffffffff8111156106af576106ae61061c565b5b6020830191508360018202830111156106cb576106ca610621565b5b9250929050565b600080600080600080600060a0888a0312156106f1576106f0610574565b5b60006106ff8a828b0161059f565b975050602088013567ffffffffffffffff8111156107205761071f610579565b5b61072c8a828b01610626565b9650965050604061073f8a828b0161059f565b94505060606107508a828b0161059f565b935050608088013567ffffffffffffffff81111561077157610770610579565b5b61077d8a828b0161067c565b925092505092959891949750929550565b600082825260208201905092915050565b7f426c6f636b20616c726561647920636f6d6d6974746564000000000000000000600082015250565b60006107d560178361078e565b91506107e08261079f565b602082019050919050565b60006020820190508181036000830152610804816107c8565b9050919050565b6000819050919050565b6108266108218261057e565b61080b565b82525050565b600081905092915050565b82818337600083830152505050565b6000610852838561082c565b935061085f838584610837565b82840190509392505050565b60006108778288610815565b602082019150610888828688610846565b91506108948285610815565b6020820191506108a48284610815565b6020820191508190509695505050505050565b7f53656e64657220616e64207369676e6572206d69736d61746368000000000000600082015250565b60006108ed601a8361078e565b91506108f8826108b7565b602082019050919050565b6000602082019050818103600083015261091c816108e0565b9050919050565b6000601f19601f8301169050919050565b6000610940838561078e565b935061094d838584610837565b61095683610923565b840190509392505050565b61096a8161057e565b82525050565b600073ffffffffffffffffffffffffffffffffffffffff82169050919050565b600061099b82610970565b9050919050565b6109ab81610990565b82525050565b600060808201905081810360008301526109cc818789610934565b90506109db6020830186610961565b6109e86040830185610961565b6109f560608301846109a2565b9695505050505050565b7f4e487b7100000000000000000000000000000000000000000000000000000000600052602160045260246000fd5b7f45434453413a20696e76616c6964207369676e61747572650000000000000000600082015250565b6000610a6460188361078e565b9150610a6f82610a2e565b602082019050919050565b60006020820190508181036000830152610a9381610a57565b9050919050565b7f45434453413a20696e76616c6964207369676e6174757265206c656e67746800600082015250565b6000610ad0601f8361078e565b9150610adb82610a9a565b602082019050919050565b60006020820190508181036000830152610aff81610ac3565b9050919050565b7f45434453413a20696e76616c6964207369676e6174757265202773272076616c60008201527f7565000000000000000000000000000000000000000000000000000000000000602082015250565b6000610b6260228361078e565b9150610b6d82610b06565b604082019050919050565b60006020820190508181036000830152610b9181610b55565b9050919050565b6000819050919050565b610bab81610b98565b82525050565b600060ff82169050919050565b610bc781610bb1565b82525050565b6000608082019050610be26000830187610ba2565b610bef6020830186610bbe565b610bfc6040830185610ba2565b610c096060830184610ba2565b9594505050505056fea26469706673582212206d147ffc4cd7e6aacceb274e7e3ae06c62c16641a90192eb0ed13ef6ba17426c64736f6c634300081c0033",
  "linkReferences": {},
  "deployedLinkReferences": {}
}