{
  "_format": "hh-sol-artifact-1",
  "contractName": "DroneConsensus",
  "sourceName": "contracts/DroneConsensus.sol",
  "abi": [
    {
      "inputs": [],
      "stateMutability": "nonpayable",
      "type": "constructor"
    },
    {
      "anonymous": false,
      "inputs": [
        {
          "indexed": false,
          "internalType": "uint256",
          "name": "blockView",
          "type": "uint256"
        },
        {
          "indexed": false,
          "internalType": "string",
          "name": "digest",
          "type": "string"
        },
        {
          "indexed": false,
          "internalType": "string",
          "name": "operation",
          "type": "string"
        },
        {
          "indexed": false,
          "internalType": "uint256",
          "name": "x",
          "type": "uint256"
        },
        {
          "indexed": false,
          "internalType": "uint256",
          "name": "y",
          "type": "uint256"
        }
      ],
      "name": "BlockCommitted",
      "type": "event"
    },
    {
      "anonymous": false,
      "inputs": [
        {
          "indexed": true,
          "internalType": "address",
          "name": "sender",
          "type": "address"
        },
        {
          "indexed": false,
          "internalType": "string",
          "name": "operation",
          "type": "string"
        }
      ],
      "name": "CommandValidated",
      "type": "event"
    },
    {
      "anonymous": false,
      "inputs": [
        {
          "indexed": false,
          "internalType": "address",
          "name": "client",
          "type": "address"
        }
      ],
      "name": "NewAuthorization",
      "type": "event"
    },
    {
      "inputs": [
        {
          "internalType": "address",
          "name": "newClient",
          "type": "address"
        }
      ],
      "name": "addAuthorizedClient",
      "outputs": [],
      "stateMutability": "nonpayable",
      "type": "function"
    },
    {
      "inputs": [
        {
          "internalType": "uint256",
          "name": "",
          "type": "uint256"
        }
      ],
      "name": "authorizedClients",
      "outputs": [
        {
          "internalType": "address",
          "name": "",
          "type": "address"
        }
      ],
      "stateMutability": "view",
      "type": "function"
    },
    {
      "inputs": [
        {
          "internalType": "uint256",
          "name": "blockView",
          "type": "uint256"
        },
        {
          "internalType": "string",
          "name": "digest",
          "type": "string"
        },
        {
          "internalType": "string",
          "name": "operation",
          "type": "string"
        },
        {
          "internalType": "uint256",
          "name": "x",
          "type": "uint256"
        },
        {
          "internalType": "uint256",
          "name": "y",
          "type": "uint256"
        }
      ],
      "name": "commitBlock",
      "outputs": [],
      "stateMutability": "nonpayable",
      "type": "function"
    },
    {
      "inputs": [
        {
          "internalType": "uint256",
          "name": "",
          "type": "uint256"
        }
      ],
      "name": "committedBlocks",
      "outputs": [
        {
          "internalType": "string",
          "name": "",
          "type": "string"
        }
      ],
      "stateMutability": "view",
      "type": "function"
    },
    {
      "inputs": [
        {
          "internalType": "address",
          "name": "client",
          "type": "address"
        }
      ],
      "name": "isAuthorized",
      "outputs": [
        {
          "internalType": "bool",
          "name": "",
          "type": "bool"
        }
      ],
      "stateMutability": "view",
      "type": "function"
    },
    {
      "inputs": [
        {
          "internalType": "string",
          "name": "operation",
          "type": "string"
        }
      ],
      "name": "isMalicious",
      "outputs": [
        {
          "internalType": "bool",
          "name": "",
          "type": "bool"
        }
      ],
      "stateMutability": "pure",
      "type": "function"
    },
    {
      "inputs": [],
      "name": "owner",
      "outputs": [
        {
          "internalType": "address",
          "name": "",
          "type": "address"
        }
      ],
      "stateMutability": "view",
      "type": "function"
    },
    {
      "inputs": [
        {
          "internalType": "address",
          "name": "sender",
          "type": "address"
        },
        {
          "internalType": "string",
          "name": "operation",
          "type": "string"
        }
      ],
      "name": "validateCommand",
      "outputs": [
        {
          "internalType": "bool",
          "name": "",
          "type": "bool"
        }
      ],
      "stateMutability": "nonpayable",
      "type": "function"
    }
  ],
  "bytecode": "0x6080604052348015600f57600080fd5b5033600160006101000a81548173ffffffffffffffffffffffffffffffffffffffff021916908373ffffffffffffffffffffffffffffffffffffffff1602179055506000600160009054906101000a900473ffffffffffffffffffffffffffffffffffffffff169080600181540180825580915050600190039060005260206000200160009091909190916101000a81548173ffffffffffffffffffffffffffffffffffffffff021916908373ffffffffffffffffffffffffffffffffffffffff1602179055506110ed806100e56000396000f3fe608060405234801561001057600080fd5b50600436106100885760003560e01c80638da5cb5b1161005b5780638da5cb5b14610125578063b38030bb14610143578063f173ce0e14610173578063fe9fbb80146101a357610088565b806307d0fa291461008d5780630a214a66146100bd5780634216c177146100d95780635f57f842146100f5575b600080fd5b6100a760048036038101906100a2919061070d565b6101d3565b6040516100b4919061077b565b60405180910390f35b6100d760048036038101906100d291906107fb565b610212565b005b6100f360048036038101906100ee91906108e3565b6102e3565b005b61010f600480360381019061010a919061070d565b610410565b60405161011c91906109a0565b60405180910390f35b61012d6104b0565b60405161013a919061077b565b60405180910390f35b61015d600480360381019061015891906109c2565b6104d6565b60405161016a9190610a2a565b60405180910390f35b61018d60048036038101906101889190610a45565b610536565b60405161019a9190610a2a565b60405180910390f35b6101bd60048036038101906101b891906108e3565b610625565b6040516101ca9190610a2a565b60405180910390f35b600081815481106101e357600080fd5b906000526020600020016000915054906101000a900473ffffffffffffffffffffffffffffffffffffffff1681565b600060026000898152602001908152602001600020805461023290610ad4565b905014610274576040517f08c379a000000000000000000000000000000000000000000000000000000000815260040161026b90610b51565b60405180910390fd5b8585600260008a81526020019081526020016000209182610296929190610d57565b507f3a3ff3f202228190880cfe7c7059db3ec6a77a35acb4eb9721936842c572ae39878787878787876040516102d29796959493929190610e72565b60405180910390a150505050505050565b600160009054906101000a900473ffffffffffffffffffffffffffffffffffffffff1673ffffffffffffffffffffffffffffffffffffffff163373ffffffffffffffffffffffffffffffffffffffff1614610373576040517f08c379a000000000000000000000000000000000000000000000000000000000815260040161036a90610f23565b60405180910390fd5b6000819080600181540180825580915050600190039060005260206000200160009091909190916101000a81548173ffffffffffffffffffffffffffffffffffffffff021916908373ffffffffffffffffffffffffffffffffffffffff1602179055507f0ae9f002da45b657c133a88b359afedbfe6a8983b9ffcd25012e2ff864da3eec81604051610405919061077b565b60405180910390a150565b6002602052806000526040600020600091509050805461042f90610ad4565b80601f016020809104026020016040519081016040528092919081815260200182805461045b90610ad4565b80156104a85780601f1061047d576101008083540402835291602001916104a8565b820191906000526020600020905b81548152906001019060200180831161048b57829003601f168201915b505050505081565b600160009054906101000a900473ffffffffffffffffffffffffffffffffffffffff1681565b60006040518060400160405280600d81526020017f6d616c6963696f75735f636d6400000000000000000000000000000000000000815250805190602001208383604051610525929190610f73565b604051809103902014905092915050565b600061054184610625565b610580576040517f08c379a000000000000000000000000000000000000000000000000000000000815260040161057790610fd8565b60405180910390fd5b61058a83836104d6565b156105ca576040517f08c379a00000000000000000000000000000000000000000000000000000000081526004016105c190611044565b60405180910390fd5b8373ffffffffffffffffffffffffffffffffffffffff167f1c273546fa4302b90db7ce267ded4765cf66c28bbf32f85eeb1e0940904dee158484604051610612929190611064565b60405180910390a2600190509392505050565b600080600090505b6000805490508110156106c2578273ffffffffffffffffffffffffffffffffffffffff166000828154811061066557610664611088565b5b9060005260206000200160009054906101000a900473ffffffffffffffffffffffffffffffffffffffff1673ffffffffffffffffffffffffffffffffffffffff16036106b55760019150506106c8565b808060010191505061062d565b50600090505b919050565b600080fd5b600080fd5b6000819050919050565b6106ea816106d7565b81146106f557600080fd5b50565b600081359050610707816106e1565b92915050565b600060208284031215610723576107226106cd565b5b6000610731848285016106f8565b91505092915050565b600073ffffffffffffffffffffffffffffffffffffffff82169050919050565b60006107658261073a565b9050919050565b6107758161075a565b82525050565b6000602082019050610790600083018461076c565b92915050565b600080fd5b600080fd5b600080fd5b60008083601f8401126107bb576107ba610796565b5b8235905067ffffffffffffffff8111156107d8576107d761079b565b5b6020830191508360018202830111156107f4576107f36107a0565b5b9250929050565b600080600080600080600060a0888a03121561081a576108196106cd565b5b60006108288a828b016106f8565b975050602088013567ffffffffffffffff811115610849576108486106d2565b5b6108558a828b016107a5565b9650965050604088013567ffffffffffffffff811115610878576108776106d2565b5b6108848a828b016107a5565b945094505060606108978a828b016106f8565b92505060806108a88a828b016106f8565b91505092959891949750929550565b6108c08161075a565b81146108cb57600080fd5b50565b6000813590506108dd816108b7565b92915050565b6000602082840312156108f9576108f86106cd565b5b6000610907848285016108ce565b91505092915050565b600081519050919050565b600082825260208201905092915050565b60005b8381101561094a57808201518184015260208101905061092f565b60008484015250505050565b6000601f19601f8301169050919050565b600061097282610910565b61097c818561091b565b935061098c81856020860161092c565b61099581610956565b840191505092915050565b600060208201905081810360008301526109ba8184610967565b905092915050565b600080602083850312156109d9576109d86106cd565b5b600083013567ffffffffffffffff8111156109f7576109f66106d2565b5b610a03858286016107a5565b92509250509250929050565b60008115159050919050565b610a2481610a0f565b82525050565b6000602082019050610a3f6000830184610a1b565b92915050565b600080600060408486031215610a5e57610a5d6106cd565b5b6000610a6c868287016108ce565b935050602084013567ffffffffffffffff811115610a8d57610a8c6106d2565b5b610a99868287016107a5565b92509250509250925092565b7f4e487b7100000000000000000000000000000000000000000000000000000000600052602260045260246000fd5b60006002820490506001821680610aec57607f821691505b602082108103610aff57610afe610aa5565b5b50919050565b7f416c726561647920636f6d6d6974746564000000000000000000000000000000600082015250565b6000610b3b60118361091b565b9150610b4682610b05565b602082019050919050565b60006020820190508181036000830152610b6a81610b2e565b9050919050565b600082905092915050565b7f4e487b7100000000000000000000000000000000000000000000000000000000600052604160045260246000fd5b60008190508160005260206000209050919050565b60006020601f8301049050919050565b600082821b905092915050565b600060088302610c0d7fffffffffffffffffffffffffffffffffffffffffffffffffffffffffffffffff82610bd0565b610c178683610bd0565b95508019841693508086168417925050509392505050565b6000819050919050565b6000610c54610c4f610c4a846106d7565b610c2f565b6106d7565b9050919050565b6000819050919050565b610c6e83610c39565b610c82610c7a82610c5b565b848454610bdd565b825550505050565b600090565b610c97610c8a565b610ca2818484610c65565b505050565b5b81811015610cc657610cbb600082610c8f565b600181019050610ca8565b5050565b601f821115610d0b57610cdc81610bab565b610ce584610bc0565b81016020851015610cf4578190505b610d08610d0085610bc0565b830182610ca7565b50505b505050565b600082821c905092915050565b6000610d2e60001984600802610d10565b1980831691505092915050565b6000610d478383610d1d565b9150826002028217905092915050565b610d618383610b71565b67ffffffffffffffff811115610d7a57610d79610b7c565b5b610d848254610ad4565b610d8f828285610cca565b6000601f831160018114610dbe5760008415610dac578287013590505b610db68582610d3b565b865550610e1e565b601f198416610dcc86610bab565b60005b82811015610df457848901358255600182019150602085019450602081019050610dcf565b86831015610e115784890135610e0d601f891682610d1d565b8355505b6001600288020188555050505b50505050505050565b610e30816106d7565b82525050565b82818337600083830152505050565b6000610e51838561091b565b9350610e5e838584610e36565b610e6783610956565b840190509392505050565b600060a082019050610e87600083018a610e27565b8181036020830152610e9a81888a610e45565b90508181036040830152610eaf818688610e45565b9050610ebe6060830185610e27565b610ecb6080830184610e27565b98975050505050505050565b7f4f6e6c79206f776e65722063616e2063616c6c20746869730000000000000000600082015250565b6000610f0d60188361091b565b9150610f1882610ed7565b602082019050919050565b60006020820190508181036000830152610f3c81610f00565b9050919050565b600081905092915050565b6000610f5a8385610f43565b9350610f67838584610e36565b82840190509392505050565b6000610f80828486610f4e565b91508190509392505050565b7f556e617574686f72697a656420636c69656e7400000000000000000000000000600082015250565b6000610fc260138361091b565b9150610fcd82610f8c565b602082019050919050565b60006020820190508181036000830152610ff181610fb5565b9050919050565b7f4d616c6963696f757320636f6d6d616e64000000000000000000000000000000600082015250565b600061102e60118361091b565b915061103982610ff8565b602082019050919050565b6000602082019050818103600083015261105d81611021565b9050919050565b6000602082019050818103600083015261107f818486610e45565b90509392505050565b7f4e487b7100000000000000000000000000000000000000000000000000000000600052603260045260246000fdfea26469706673582212205fcc834587e3d88b6a17f696440da17e614173a64463e580b5bd401bdf9e9cfc64736f6c634300081c0033",
  "linkReferences": {},
  "deployedLinkReferences": {}
}